:100000000C945E000C9486000C9486000C94860080
:100010000C9486000C9486000C9486000C94860048
:100020000C9486000C9486000C9486000C94860038
:100030000C9486000C9486000C9486000C94860028
:100040000C94BF010C9486000C9450040C949304FF
:100050000C9486000C9486000C9486000C94860008
:100060000C9486000C94860000000007000201003A
:100070000003040600000000000000000102040864
:100080001020408001020408102001020408102002
:10009000040404040404040402020202020203032E
:1000A0000303030300000000250028002B000000CC
:1000B0000000240027002A001601520511241FBE4B
:1000C000CFEFD8E0DEBFCDBF11E0A0E0B1E0ECE7BC
:1000D000F1E102C005900D92A834B107D9F722E0F2
:1000E000A8E4B1E001C01D92A730B207E1F710E02B
:1000F000CEE5D0E004C02197FE010E946608CC3511
:10010000D107C9F70E94A9030C94BC080C94000005
:1001100048E552E060E070E089E591E00E94CE049D
:1001200061E0809104010E94540161E0809100012E
:100130000E94540161E0809102010E9454016CE030
:1001400071E089E591E00C942C061F93CF93DF9327
:10015000CDB7DEB72E970FB6F894DEBF0FBECDBF7A
:10016000E0914801F0914901EE0FFF1FE65BFE4F61
:10017000608171814AE0CE0108960E942A036CE1F9
:1001800071E0CE0101960E94FD02BE01685F7F4FC3
:10019000CE0101960E948503BC0189E591E00E9491
:1001A0001A06CE0101960E948F02CE0108960E9487
:1001B0008F02E0914801F0914901EE0FFF1FE65BCD
:1001C000FE4F61E080810E949001809148019091F2
:1001D0004901FC01EE0FFF1FE65BFE4F10818230EC
:1001E00091052CF0109249011092480105C001962A
:1001F000909349018093480168EE73E080E090E0BD
:100200000E942E0260E0812F0E94900168EE73E050
:1002100080E090E00E942E022E960FB6F894DEBF8A
:100220000FBECDBFDF91CF911F910895EAE4F1E0B9
:100230008091040190910501918380838091020156
:100240009091030193838283809100019091010139
:10025000958384830895833081F028F4813099F068
:100260008230A1F008958630A9F08730B9F084304B
:10027000D1F4809180008F7D03C0809180008F77C2
:1002800080938000089584B58F7702C084B58F7DF8
:1002900084BD08958091B0008F7703C08091B00035
:1002A0008F7D8093B0000895CF93DF9390E0FC01A1
:1002B000E458FF4F2491FC01E057FF4F84918823BD
:1002C00061F190E0880F991FFC01E255FF4FC59145
:1002D000D491FC01EC55FF4FA591B491611109C077
:1002E0009FB7F8948881209582238883EC912E23F0
:1002F0000BC0623061F49FB7F8948881322F30953B
:1003000083238883EC912E2B2C939FBF06C08FB73D
:10031000F894E8812E2B28838FBFDF91CF91089529
:100320001F93CF93DF93282F30E0F901E859FF4F57
:100330008491F901E458FF4FD491F901E057FF4F40
:10034000C491CC23C1F0162F81110E942B01EC2FF8
:10035000F0E0EE0FFF1FEC55FF4FA591B4919FB752
:10036000F894111104C08C91D095D82302C0EC915F
:10037000DE2BDC939FBFDF91CF911F9108951F92D9
:100380000F920FB60F9211242F933F938F939F9349
:10039000AF93BF938091510190915201A09153016D
:1003A000B09154013091500123E0230F2D3720F4F8
:1003B0000196A11DB11D05C026E8230F0296A11DBF
:1003C000B11D209350018093510190935201A0934D
:1003D0005301B09354018091550190915601A09121
:1003E0005701B09158010196A11DB11D809355018F
:1003F00090935601A0935701B0935801BF91AF91CC
:100400009F918F913F912F910F900FBE0F901F9052
:1004100018953FB7F8948091550190915601A0919D
:100420005701B091580126B5A89B05C02F3F19F080
:100430000196A11DB11D3FBFBA2FA92F982F882764
:10044000820F911DA11DB11DBC01CD0142E0660FBF
:10045000771F881F991F4A95D1F70895CF92DF9291
:10046000EF92FF92CF93DF936B017C010E94090210
:10047000EB01C114D104E104F10479F00E940902F6
:100480006C1B7D0B683E7340A0F381E0C81AD10855
:10049000E108F108C851DC4FECCFDF91CF91FF901C
:1004A000EF90DF90CF900895789484B5826084BDFA
:1004B00084B5816084BD85B5826085BD85B5816068
:1004C00085BDEEE6F0E0808181608083E1E8F0E0C8
:1004D0001082808182608083808181608083E0E8F7
:1004E000F0E0808181608083E1EBF0E080818460D6
:1004F0008083E0EBF0E0808181608083EAE7F0E0D8
:10050000808184608083808182608083808181603B
:1005100080838081806880831092C1000895FC01EF
:10052000808191810C94BB07CF93DF93EC0188818C
:100530009981009711F00E94BB07198218821D82D1
:100540001C821B821A82DF91CF9108950F931F9313
:10055000CF93DF93EC018B016F5F7F4F888199818F
:100560000E943E06009731F0998388831B830A839B
:1005700081E001C080E0DF91CF911F910F9108953C
:10058000CF93DF93EC0188819981892B29F08A81AF
:100590009B818617970760F4CE010E94A6028823EC
:1005A00041F08C819D81892B19F4E881F9811082B9
:1005B00081E0DF91CF910895EF92FF920F931F9307
:1005C000CF93DF93EC017B018A01BA010E94C00244
:1005D000811104C0CE010E94940207C01D830C83C8
:1005E000B701888199810E947508CE01DF91CF9172
:1005F0001F910F91FF90EF900895FC0111821082DE
:10060000138212821582148216826115710551F0CF
:10061000FB0101900020E9F73197AF01461B570B12
:100620000C94DC020895CF93DF93EC016115710502
:1006300059F0FB0101900020E9F73197AF01461B0B
:10064000570B0E94DC0202C00E949402CE01DF918F
:10065000CF9108950F931F93CF93DF93CDB7DEB75C
:1006600062970FB6F894DEBF0FBECDBF8C01CB01F1
:10067000F80111821082138212821582148216826E
:1006800050E0BE016F5F7F4F0E947C08BE016F5F2C
:100690007F4FC8010E94130362960FB6F894DEBF25
:1006A0000FBECDBFDF91CF911F910F910895EF92B3
:1006B000FF920F931F93CF93DF936115710511F490
:1006C00080E01CC041155105C1F07B01EC018C811B
:1006D0009D818A01080F191FB801CE010E94C00236
:1006E000882371F3288139818C819D81B701820F24
:1006F000931F0E9475081D830C8381E0DF91CF91C9
:100700001F910F91FF90EF900895CF93DF93EC012D
:10071000FB0144815581608171810E9457038111E1
:1007200003C0CE010E949402CE01DF91CF910895C3
:10073000FC01248135816217730748F4808191811F
:10074000009729F0FC01E60FF71F8081089580E0F3
:1007500008950E9454020E948800CAE8D4E00E94D2
:10076000A5002097E1F30E948A04F9CFFC012485BB
:100770003585F901E05CFF4F8081918132962081BF
:100780003181821B930B8F7399270895DC011C968E
:10079000ED91FC911D97DF01A05CBF4F2D913C9125
:1007A000119712968D919C9111972817390739F05E
:1007B0008D919C91E80FF91F808190E008958FEF53
:1007C0009FEF0895FC01A485B585FD01E05CFF4F16
:1007D000208131813296808191812817390779F003
:1007E00080819181A80FB91F8C91208131812F5F69
:1007F0003F4F2F7333273183208390E008958FEF8D
:100800009FEF0895FC0181A1882329F0A489B5896F
:100810008C9186FFFBCF11A208950F931F93CF9366
:10082000DF93FC01A685B7858D01005C1F4FE801B1
:100830008881998101968F739927AD014E5B5F4F37
:10084000EA012881398128173907D1F3E801288185
:100850003981A20FB31F6C93A685B785A05CBF4FEB
:1008600011969C938E93A689B7892C9181E090E094
:10087000078C02C0880F991F0A94E2F7822B8C9391
:1008800081E081A30488F589E02D808180648083E4
:1008900081E090E0DF91CF911F910F91089508952D
:1008A0001F920F920FB60F9211242F934F935F93C5
:1008B0008F939F93EF93FF938091C00082FD1CC0A4
:1008C0002091C6008091FF019091000240910102A9
:1008D0005091020201968F7399274817590771F0BA
:1008E000E091FF01F0910002E154FE4F20839093CC
:1008F00000028093FF0102C08091C600FF91EF913A
:100900009F918F915F914F912F910F900FBE0F90FC
:100910001F90189589E591E00E94B603892B11F08C
:100920000C944F0408951F920F920FB60F9211244A
:100930002F933F938F939F93EF93FF932091BB014E
:100940003091BC018091BD019091BE0128173907FB
:1009500031F48091C1008F7D8093C10014C0E0917B
:10096000BD01F091BE01E558FE4F20818091BD018F
:100970009091BE0101968F7399279093BE01809349
:10098000BD012093C600FF91EF919F918F913F9100
:100990002F910F900FBE0F901F901895CF92DF925E
:1009A000EF92FF92CF93DF93EC016A017B01411537
:1009B000514E6105710509F1EC89FD8981E090E0F6
:1009C00008A002C0880F991F0A94E2F7808360E0B4
:1009D00079E08DE390E0A70196010E944408DA01D6
:1009E000C9010197A109B109B695A7959795879572
:1009F0009C01211580E13807A8F0EC89FD8910825F
:100A000060E874E88EE190E0A70196010E94440836
:100A1000DA01C9010197A109B109B695A795979582
:100A200087959C01E889F9893083EA89FB892083CD
:100A300019A2EE89FF89408181E090E09C010C8C35
:100A400002C0220F331F0A94E2F7242B2083EE8981
:100A5000FF8940819C010D8C02C0220F331F0A9434
:100A6000E2F7242B2083EE89FF8940819C010E8CC4
:100A700002C0220F331F0A94E2F7242B2083EE8951
:100A8000FF8920810F8C02C0880F991F0A94E2F71A
:100A9000809582238083DF91CF91FF90EF90DF904C
:100AA000CF900895E9E5F1E01382128288EE93E099
:100AB000A0E0B0E084839583A683B7838BE391E0C5
:100AC000918380838FEB91E0958784878BE791E01A
:100AD0009787868785EC90E0918B808B84EC90E003
:100AE000938B828B80EC90E0958B848B81EC90E0F3
:100AF000978B868B82EC90E0918F808F86EC90E0D4
:100B0000938F828F84E0848F83E0858F87E0868F48
:100B100085E0878F81E080A30895CF92DF92EF92E6
:100B2000FF920F931F93CF93DF936C01EB017B0137
:100B3000E40EF51E00E010E0CE15DF0561F06991CE
:100B4000D601ED91FC910190F081E02DC60109954F
:100B5000080F191FF1CFC801DF91CF911F910F919D
:100B6000FF90EF90DF90CF9008956115710579F0B7
:100B7000FB0101900020E9F73197AF01461B570BAD
:100B8000DC01ED91FC910280F381E02D099480E07D
:100B900090E00895AF92BF92CF92DF92EF92FF92D2
:100BA0000F931F93CF93DF937C016B01C0E0D0E0E4
:100BB00000E010E0D60114968D919C911597C8170E
:100BC000D90788F4D701ED91FC91A080B180BE01D6
:100BD000C6010E949803682FC701F5010995080F07
:100BE000191F2196E7CFC801DF91CF911F910F9177
:100BF000FF90EF90DF90CF90BF90AF900895DC0111
:100C0000ED91FC910190F081E02D09940F931F93D9
:100C1000CF93DF93EC016DE00E94FF058C016AE049
:100C2000CE010E94FF05800F911FDF91CF911F9190
:100C30000F9108950F931F93CF93DF93EC010E94C0
:100C4000CA058C01CE010E940606800F911FDF911C
:100C5000CF911F910F9108950F931F93CF93DF931F
:100C6000EC010E94B5058C01CE010E940606800FA2
:100C7000911FDF91CF911F910F9108956F927F92F5
:100C80008F929F92AF92BF92CF92DF92EF92FF929C
:100C90000F931F93CF93DF93009789F4CB01DF91DC
:100CA000CF911F910F91FF90EF90DF90CF90BF9069
:100CB000AF909F908F907F906F900C942307FC01D2
:100CC000E60FF71F9C0122503109E217F30708F4E1
:100CD000A9C0EC01D9010D911C91119706171707B6
:100CE000B0F00530110508F49BC0C80104978617C1
:100CF000970708F495C002501109061B170B0193C2
:100D000011936D937C93CF010E94BB0789C05B0157
:100D1000A01AB10A4C01800E911EA0910502B0915B
:100D20000602612C712CE12CF12C109709F446C0BD
:100D30008D919C911197A815B905B1F56C0142E010
:100D4000C40ED11CCA14DB0478F14C018A189B082C
:100D5000640142E0C40ED11C1296BC901297139607
:100D6000AC91B5E0CB16D10440F0B282A38391825E
:100D70008082D9016D937C9309C00E5F1F4F800F55
:100D8000911FF90191838083EB2DFA2FE114F10477
:100D900031F0D7011396FC93EE93129741C0F09374
:100DA0000602E09305023CC06816790608F43C018F
:100DB0007D0112960D90BC91A02DB7CF80910302BA
:100DC0009091040288169906E1F466167706C8F435
:100DD0008091060190910701009741F48DB79EB76D
:100DE00040910A0150910B01841B950BE817F907FC
:100DF000C8F4F0930402E0930302F9017183608365
:100E00000FC0CB010E9423077C01009759F0A80175
:100E1000BE010E946C08CE010E94BB07C70104C03E
:100E2000CE0102C080E090E0DF91CF911F910F9141
:100E3000FF90EF90DF90CF90BF90AF909F908F90FA
:100E40007F906F9008950F931F93CF93DF9382301D
:100E5000910510F482E090E0E0910502F091060225
:100E600020E030E0A0E0B0E0309719F140815181FE
:100E70000281138148175907C8F08417950769F450
:100E8000109731F012960C93129713961C9327C06B
:100E9000009305021093060222C02115310519F0B6
:100EA0004217530718F49A01BD01EF01DF01F80161
:100EB000DBCF21153105F9F0281B390B2430310522
:100EC00080F48A819B816115710521F0FB01938378
:100ED000828304C09093060280930502FE0132963D
:100EE00044C0FE01E20FF31F819391932250310918
:100EF000398328833AC02091030230910402232BC6
:100F000041F42091080130910901309304022093AB
:100F1000030220910601309107012115310541F4AA
:100F20002DB73EB740910A0150910B01241B350BA0
:100F3000E0910302F0910402E217F307A0F42E1BE4
:100F40003F0B2817390778F0AC014E5F5F4F24172D
:100F5000350748F04E0F5F1F509304024093030281
:100F60008193919302C0E0E0F0E0CF01DF91CF9157
:100F70001F910F910895CF93DF93009709F481C0DB
:100F8000FC01329713821282A0910502B0910602F1
:100F9000109781F420813181820F931F20910302E9
:100FA000309104022817390751F5F0930402E093B9
:100FB000030267C0ED0120E030E0CE17DF0740F408
:100FC0004A815B819E0141155105F1F0EA01F5CF9F
:100FD000D383C28340815181840F951FC817D907DD
:100FE00059F488819981840F951F0296918380839B
:100FF0008A819B81938382832115310529F4F093A3
:101000000602E09305023DC0E901FB83EA834991B2
:101010005991C40FD51FEC17FD0761F480819181B0
:10102000840F951F0296E9019983888382819381B9
:101030009B838A83E0E0F0E012968D919C91139758
:10104000009719F0FD01DC01F7CF8D919C9111976C
:101050009D012E5F3F4F820F931F2091030230911D
:1010600004022817390769F4309729F41092060210
:101070001092050202C013821282B0930402A09360
:101080000302DF91CF910895A1E21A2EAA1BBB1B88
:10109000FD010DC0AA1FBB1FEE1FFF1FA217B30744
:1010A000E407F50720F0A21BB30BE40BF50B661F5A
:1010B000771F881F991F1A9469F76095709580951E
:1010C00090959B01AC01BD01CF010895EE0FFF1F6C
:1010D0000590F491E02D0994FB01DC0102C0019020
:1010E0000D9241505040D8F70895FB01DC0101906A
:1010F0000D920020E1F708954532510520F4423069
:1011000010F00C948708FB011082CB010895BB27D7
:101110004A3031F4992322F4BDE2909581959F4F96
:101120000C949308BB27FB015527AA27880F991F0A
:10113000AA1FA41710F0A41B83955051B9F7A05D06
:10114000AA3308F0A95DA193009779F7B111B19383
:101150001192CB010C94AC08DC01FC01672F71915A
:101160007723E1F7329704C07C916D93708362918D
:0C117000AE17BF07C8F30895F894FFCF36
:10117C002D002C002A0000000702800046696E69D1
:10118C00736865642073657475702E00577269748A
:10119C00696E6720746F206469676974616C207074
:1011AC00696E202E2E2E00000000000D048D05B659
:0811BC0003E203C60302040074
:00000001FF
