:100000000C9483000C94B4000C94B4000C94B400D1
:100010000C94B4000C94B4000C94B4000C94B40090
:100020000C94B4000C94B4000C94B4000C94B40080
:100030000C94B4000C94B4000C94B4000C94B40070
:100040000C94B4000C94B4000C94B4000C94B40060
:100050000C94B4000C94B4000C94B4000C94EF0015
:100060000C94B4000C94A7020C9497030C94B40065
:100070000C94B4000C94B4000C94B4000C94B40030
:100080000C94B4000C94B4000C94B4000C94B40020
:100090000C94DB020C94D6030C94B4000C94B400C2
:1000A0000C94B4000C94B4000C94B4000C94B40000
:1000B0000C94B4000C94B4000C94B4000C94B400F0
:1000C0000C94B4000C94B4000C94B4000C940F0382
:1000D0000C9415040C94B4000C9443030C94540435
:1000E0000C94B4000C944A020C94F3010C94030297
:1000F0000C941F020C94E9050C943F020C947603B7
:100100000C941705170511241FBECFEFD1E2DEBFF7
:10011000CDBF00E00CBF12E0A0E0B2E0ECE4FEE0F6
:1001200000E00BBF02C007900D92A433B107D9F7CE
:1001300024E0A4E3B2E001C01D92A53EB207E1F7BE
:1001400010E0C3E8D0E000E006C021970109802F4D
:10015000FE010E941C07C238D10780E00807A9F7FA
:100160000E94E6010C9424070C94000040E855E23C
:1001700060E070E083EA92E00E94930440E855E278
:1001800060E070E081E892E00E94930460E072E039
:1001900083EA92E00E9426064AE050E060E875E2B9
:1001A00083EA92E00E94F30662E272E083EA92E060
:1001B0000C94430681E892E00E94F301892B49F0F8
:1001C00081E892E00E941F02682F83EA92E00E9479
:1001D0004A0264EF71E080E090E00C945E011F92AF
:1001E0000F920FB60F9211242F933F938F939F93EB
:1001F000AF93BF938091350290913602A091370260
:10020000B09138023091340223E0230F2D3720F4CF
:100210000196A11DB11D05C026E8230F0296A11D60
:10022000B11D209334028093350290933602A0933F
:100230003702B09338028091390290913A02A0912E
:100240003B02B0913C020196A11DB11D8093390281
:1002500090933A02A0933B02B0933C02BF91AF91BE
:100260009F918F913F912F910F900FBE0F901F90F4
:1002700018953FB7F8948091390290913A02A09175
:100280003B02B0913C0226B5A89B05C02F3F19F058
:100290000196A11DB11D3FBFBA2FA92F982F882706
:1002A000820F911DA11DB11DBC01CD0142E0660F61
:1002B000771F881F991F4A95D1F70895CF92DF9233
:1002C000EF92FF92CF93DF936B017C010E94390183
:1002D000EB01C114D104E104F10479F00E94390169
:1002E0006C1B7D0B683E7340A0F381E0C81AD108F7
:1002F000E108F108C851DC4FECCFDF91CF91FF90BE
:10030000EF90DF90CF900895789484B5826084BD9B
:1003100084B5816084BD85B5826085BD85B5816009
:1003200085BDEEE6F0E0808181608083E1E8F0E069
:100330001082808182608083808181608083E0E898
:10034000F0E0808181608083E1EBF0E08081846077
:100350008083E0EBF0E0808181608083E1E9F0E080
:10036000808182608083808181608083E0E9F0E029
:10037000808181608083E1EAF0E080818260808317
:10038000808181608083E0EAF0E080818160808309
:10039000E1E2F1E0808182608083808181608083FE
:1003A000E0E2F1E0808181608083EAE7F0E0808133
:1003B000846080838081826080838081816080838B
:1003C0008081806880831092C10008950E9484011A
:1003D0000E94B600C6E7D3E00E94DA002097E1F35E
:1003E0000E947603F9CFFC0124853585F901E05C94
:1003F000FF4F80819181329620813181821B930B46
:100400008F7399270895DC011C96ED91FC911D973F
:10041000DF01A05CBF4F2D913C91119712968D91F9
:100420009C9111972817390739F08D919C91E80F0D
:10043000F91F808190E008958FEF9FEF0895FC01F0
:10044000A485B585FD01E05CFF4F208131813296A6
:10045000808191812817390779F080819181A80FD7
:10046000B91F8C91208131812F5F3F4F2F7333272C
:100470003183208390E008958FEF9FEF0895FC0172
:1004800081A1882329F0A489B5898C9186FFFBCFAF
:1004900011A208950F931F93CF93DF93FC01A685BC
:1004A000B7858D01005C1F4FE80188819981019615
:1004B0008F739927AD014E5B5F4FEA012881398127
:1004C00028173907D1F3E80128813981A20FB31F1A
:1004D0006C93A685B785A05CBF4F11969C938E93B5
:1004E000A689B7892C9181E090E0078C02C0880F23
:1004F000991F0A94E2F7822B8C9381E081A30488F0
:10050000F589E02D80818064808381E090E0DF9137
:10051000CF911F910F910895FB01E05CFF4F208167
:100520003181DB01AE5BBF4F4D915C912F5F3F4F3F
:100530002F7333274217530741F040815181DB016C
:10054000A40FB51F8C9331832083089508951F92C3
:100550000F920FB60F9211240BB60F922F933F9369
:100560004F935F936F937F938F939F93AF93BF93BB
:10057000EF93FF938091C00082FD07C08091C60079
:1005800061EA74E00E948C0202C08091C600FF9173
:10059000EF91BF91AF919F918F917F916F915F91FB
:1005A0004F913F912F910F900BBE0F900FBE0F9068
:1005B0001F90189508951F920F920FB60F92112455
:1005C0000BB60F922F933F934F935F936F937F934D
:1005D0008F939F93AF93BF93EF93FF938091C80046
:1005E00082FD07C08091CE0069E174E00E948C0218
:1005F00002C08091CE00FF91EF91BF91AF919F918A
:100600008F917F916F915F914F913F912F910F90BB
:100610000BBE0F900FBE0F901F90189508951F925C
:100620000F920FB60F9211240BB60F922F933F9398
:100630004F935F936F937F938F939F93AF93BF93EA
:10064000EF93FF938091D00082FD07C08091D60088
:1006500061E973E00E948C0202C08091D600FF9194
:10066000EF91BF91AF919F918F917F916F915F912A
:100670004F913F912F910F900BBE0F900FBE0F9097
:100680001F90189508951F920F920FB60F92112484
:100690000BB60F922F933F934F935F936F937F937C
:1006A0008F939F93AF93BF93EF93FF93809130010C
:1006B00082FD07C08091360169E073E00E948C02E0
:1006C00002C080913601FF91EF91BF91AF919F9150
:1006D0008F917F916F915F914F913F912F910F90EB
:1006E0000BBE0F900FBE0F901F90189583EA92E0FB
:1006F0000E94F301892B11F00E94A60281E892E08A
:100700000E94F301892B11F00E94DA028FE592E03A
:100710000E94F301892B11F00E940E038DE392E0F9
:100720000E94F301892B11F00C94420308951F924B
:100730000F920FB60F9211240BB60F922F933F9387
:100740008F939F93EF93FF9320919D0430919E048C
:1007500080919F049091A0042817390731F480916B
:10076000C1008F7D8093C10014C0E0919F04F0917F
:10077000A004E35AFB4F208180919F049091A00434
:1007800001968F7399279093A00480939F042093E0
:10079000C600FF91EF919F918F913F912F910F9004
:1007A0000BBE0F900FBE0F901F9018951F920F92C7
:1007B0000FB60F9211240BB60F922F933F938F9386
:1007C0009F93EF93FF93209115043091160480912D
:1007D0001704909118042817390731F48091C90043
:1007E0008F7D8093C90014C0E0911704F091180424
:1007F000EB52FC4F208180911704909118040196D0
:100800008F73992790931804809317042093CE0038
:10081000FF91EF919F918F913F912F910F900BBE80
:100820000F900FBE0F901F9018951F920F920FB64A
:100830000F9211240BB60F922F933F938F939F9398
:10084000EF93FF9320918D0330918E0380918F035E
:10085000909190032817390731F48091D1008F7D52
:100860008093D10014C0E0918F03F0919003E35B7B
:10087000FC4F208180918F039091900301968F739C
:1008800099279093900380938F032093D600FF9134
:10089000EF919F918F913F912F910F900BBE0F90F1
:1008A0000FBE0F901F9018951F920F920FB60F92C8
:1008B00011240BB60F922F933F938F939F93EF9337
:1008C000FF932091050330910603809107039091D7
:1008D00008032817390731F4809131018F7D809307
:1008E000310114C0E0910703F0910803EB53FD4F71
:1008F0002081809107039091080301968F739927B7
:10090000909308038093070320933601FF91EF91A2
:100910009F918F913F912F910F900BBE0F900FBE23
:100920000F901F901895CF92DF92EF92FF92CF9386
:10093000DF93EC016A017B014115514E61057105A0
:1009400009F1EC89FD8981E090E008A002C0880FE0
:10095000991F0A94E2F7808360E079E08DE390E0EC
:10096000A70196010E94FA06DA01C9010197A109BF
:10097000B109B695A795979587959C01211580E1BA
:100980003807A8F0EC89FD89108260E874E88EE1F0
:1009900090E0A70196010E94FA06DA01C9010197C9
:1009A000A109B109B695A795979587959C01E88906
:1009B000F9893083EA89FB89208319A2EE89FF89AE
:1009C000408181E090E09C010C8C02C0220F331F1B
:1009D0000A94E2F7242B2083EE89FF8940819C0151
:1009E0000D8C02C0220F331F0A94E2F7242B2083C0
:1009F000EE89FF8940819C010E8C02C0220F331FBB
:100A00000A94E2F7242B2083EE89FF8920810F8C42
:100A100002C0880F991F0A94E2F780958223808391
:100A2000DF91CF91FF90EF90DF90CF900895CF921C
:100A3000DF92EF92FF92E3EAF2E01382128288EEF5
:100A4000C82E83E0D82EE12CF12CC482D582E68218
:100A5000F78268E272E07183608381EA94E09587AF
:100A600084878DE594E09787868785EC90E0918B6D
:100A7000808B84EC90E0938B828B80EC90E0958B64
:100A8000848B81EC90E0978B868B82EC90E0918F49
:100A9000808F86EC90E0938F828F44E0448F33E028
:100AA000358F27E0268F95E0978F81E080A3E1E8DE
:100AB000F2E013821282C482D582E682F7827183C9
:100AC0006083A9E1B4E0B587A487A5EDB3E0B7875B
:100AD000A687ADECB0E0B18BA08BACECB0E0B38BF3
:100AE000A28BA8ECB0E0B58BA48BA9ECB0E0B78BDF
:100AF000A68BAAECB0E0B18FA08FAEECB0E0B38FC4
:100B0000A28F448F358F268F978F80A3EFE5F2E079
:100B100013821282C482D582E682F7827183608357
:100B2000A1E9B3E0B587A487ADE4B3E0B787A687B2
:100B3000A5EDB0E0B18BA08BA4EDB0E0B38BA28BA0
:100B4000A0EDB0E0B58BA48BA1EDB0E0B78BA68B88
:100B5000A2EDB0E0B18FA08FA6EDB0E0B38FA28F71
:100B6000448F358F268F978F80A3EDE3F2E01382B9
:100B70001282C482D582E682F7827183608369E043
:100B800073E07587648765EC72E07787668765E355
:100B900071E0718B608B64E371E0738B628B60E357
:100BA00071E0758B648B61E371E0778B668B62E338
:100BB00071E0718F608F66E371E0738F628F448F95
:100BC000358F268F978F80A3FF90EF90DF90CF9087
:100BD0000895CF92DF92EF92FF920F931F93CF93DE
:100BE000DF936C01EB017B01E40EF51E00E010E0E9
:100BF000CE15DF0561F06991D601ED91FC91019070
:100C0000F081E02DC6011995080F191FF1CFC80119
:100C1000DF91CF911F910F91FF90EF90DF90CF90D8
:100C200008956115710579F0FB0101900020E9F745
:100C30003197AF01461B570BDC01ED91FC9102800F
:100C4000F381E02D199480E090E008950C94110652
:100C5000DC01ED91FC910190F081E02D19940F934E
:100C60001F93CF93DF93EC016DE00E9428068C0167
:100C70006AE0CE010E942806800F911FDF91CF917C
:100C80001F910F9108950F931F93CF93DF93EC0162
:100C90000E9411068C01CE010E942F06800F911F29
:100CA000DF91CF911F910F9108958F929F92AF92F4
:100CB000BF92CF92DF92EF92FF920F931F93CF9349
:100CC000DF93CDB7DEB7A1970FB6F894DEBF0FBEA6
:100CD000CDBF6C01142FE52FCB01022F19A22230BA
:100CE00008F40AE07E0121E2E20EF11C802E912C34
:100CF000A12CB12C612F7E2FA50194010E94FA0630
:100D0000029F1019112481E0E81AF1081A3014F436
:100D1000105D01C0195CF7011083122FE32FCA0187
:100D2000232B242B252B31F7B701C6010E94110676
:100D3000A1960FB6F894DEBF0FBECDBFDF91CF9165
:100D40001F910F91FF90EF90DF90CF90BF90AF90E9
:100D50009F908F900895CF92DF92EF92FF920F9322
:100D60001F93CF93DF932115310581F4DC01ED91C1
:100D7000FC910190F081E02D642FDF91CF911F91C4
:100D80000F91FF90EF90DF90CF9019942A303105AA
:100D900001F577FF1DC06A017B01EC016DE20E9445
:100DA00028068C0144275527BA014C195D096E09A4
:100DB0007F092AE0CE010E945506800F911FDF9126
:100DC000CF911F910F91FF90EF90DF90CF900895FA
:100DD0002AE0DF91CF911F910F91FF90EF90DF906C
:100DE000CF900C9455069A01AB01770F660B770BE9
:100DF0000C94AB06A1E21A2EAA1BBB1BFD010DC071
:100E0000AA1FBB1FEE1FFF1FA217B307E407F507BA
:100E100020F0A21BB30BE40BF50B661F771F881F96
:100E2000991F1A9469F760957095809590959B012C
:100E3000AC01BD01CF010895EE0FFF1F881F8BBFCE
:0C0E40000790F691E02D1994F894FFCF74
:100E4C00426C7565746F6F746820636F6E6669674A
:100E5C00757265642C206261756420726174653AE8
:100E6C0020002E00000000004A02E905F3011F02D9
:040E7C0003023F022C
:00000001FF
