:100000000C943A010C946B010C946B010C946B01F1
:100010000C946B010C946B010C946B010C946B01B0
:100020000C946B010C946B010C946B010C946B01A0
:100030000C946B010C946B010C946B010C946B0190
:100040000C946B010C946B010C946B010C946B0180
:100050000C946B010C946B010C946B010C94CD020D
:100060000C946B010C949F050C948F060C946B01FF
:100070000C946B010C946B010C946B010C946B0150
:100080000C946B010C946B010C946B010C946B0140
:100090000C94D3050C94CE060C946B010C946B015C
:1000A0000C946B010C946B010C946B010C946B0120
:1000B0000C946B010C946B010C946B010C946B0110
:1000C0000C946B010C946B010C946B010C9407065F
:1000D0000C940D070C946B010C943B060C944C078C
:1000E0000C946B0127022A021D02210261022E02DA
:1000F000320238023C02400246024A024E026102CB
:10010000540258025C020C945C020C9458020C9449
:10011000FB040C94E1080C94EB040C944E020C9438
:100120002A020C9417050C944A020C9427020C9492
:10013000FB010C941D020C9440020C9432020C94AE
:100140002E020C943C020C9437050C9461020C9422
:1001500021020C9454020C9442050C940F080C9448
:100160006E060C9438020C9446020000090A02083C
:100170000B0C0D0706030401000000000000000046
:10018000000000000000000000000000000000006F
:1001900000000000000011100F000000000000002F
:1001A000000000000000000000000000000000004F
:1001B0000102102020080810204010204080020179
:1001C000020108040201010204081020408080405E
:1001D000201008040201800402018040201008045D
:1001E00002010804020101020408102040800102FB
:1001F00004081020408005050505070508080808C3
:10020000020202020A0A08080404040401010101AE
:1002100001010101030303030303030304070707A9
:100220000C0C0C0C0C0C0C0C02020202060606064E
:10023000060606060B0B0B0B0B0B0B0B000022002C
:10024000250028002B002E003100340002010000A0
:10025000050108010B0100002100240027002A00ED
:100260002D003000330001010000040107010A01E4
:10027000FB010F0811241FBECFEFD1E2DEBFCDBFBF
:1002800000E00CBF12E0A0E0B2E0E8E2F8E100E03C
:100290000BBF02C007900D92A834B107D9F725E033
:1002A000A8E4B2E001C01D92A530B207E1F711E069
:1002B000CAE3D1E000E006C021970109802FFE01CA
:1002C0000E94BA0BC833D10780E00807A9F70E9443
:1002D000DE040C94120C0C94000048E552E060E03F
:1002E00070E08FEB92E00E948B0761E08091040246
:1002F0000E94620261E0809100020E94620261E05D
:10030000809102020E9462026CE072E08FEB92E048
:100310000C9480091F93CF93DF93CDB7DEB72E9750
:100320000FB6F894DEBF0FBECDBFE0914802F0914A
:100330004902EE0FFF1FE65BFD4F608171814AE0CD
:10034000CE0108960E945F046CE172E0CE01019636
:100350000E943204BE01685F7F4FCE0101960E9469
:10036000BA04BC018FEB92E00E946E09CE010196A7
:100370000E94C403CE0108960E94C403E091480283
:10038000F0914902EE0FFF1FE65BFD4F61E08081B7
:100390000E949E028091480290914902FC01EE0F5A
:1003A000FF1FE65BFD4F1081823091052CF010920B
:1003B00049021092480205C0019690934902809329
:1003C000480268EE73E080E090E00E943C0360E049
:1003D000812F0E949E0268EE73E080E090E00E9410
:1003E0003C032E960FB6F894DEBF0FBECDBFDF9153
:1003F000CF911F910895EAE4F2E080910402909178
:10040000050291838083809102029091030293837D
:1004100082838091000290910102958384830895E4
:1004200090E0FC013197E131F10508F04AC08827DE
:10043000EE58FF4F8F4F0C94BA0B809180008F774E
:1004400003C0809180008F7D80938000089584B5E3
:100450008F7702C084B58F7D84BD08958091B000F0
:100460008F7703C08091B0008F7D8093B000089596
:10047000809190008F7707C0809190008F7D03C09E
:1004800080919000877F8093900008958091A000D4
:100490008F7707C08091A0008F7D03C08091A0005E
:1004A000877F8093A0000895809120018F7707C0F7
:1004B000809120018F7D03C080912001877F8093F0
:1004C00020010895CF93DF9390E0FC01E055FE4FAB
:1004D0002491FC01EA50FE4F8491882361F190E061
:1004E000880F991FFC01EA5AFD4FC591D491FC0178
:1004F000E45CFD4FA591B491611109C09FB7F894D8
:100500008881209582238883EC912E230BC0623052
:1005100061F49FB7F8948881322F309583238883C4
:10052000EC912E2B2C939FBF06C08FB7F894E881D7
:100530002E2B28838FBFDF91CF9108951F93CF93E8
:10054000DF93282F30E0F901E659FE4F8491F9013D
:10055000E055FE4FD491F901EA50FE4FC491CC23EF
:10056000C1F0162F81110E941002EC2FF0E0EE0F67
:10057000FF1FE45CFD4FA591B4919FB7F894111152
:1005800004C08C91D095D82302C0EC91DE2BDC9373
:100590009FBFDF91CF911F9108951F920F920FB6C9
:1005A0000F9211242F933F938F939F93AF93BF93F9
:1005B0008091510290915202A0915302B091540245
:1005C0003091500223E0230F2D3720F40196A11D16
:1005D000B11D05C026E8230F0296A11DB11D209371
:1005E00050028093510290935202A0935302B09311
:1005F00054028091550290915602A0915702B091F9
:1006000058020196A11DB11D809355029093560288
:10061000A0935702B0935802BF91AF919F918F91D1
:100620003F912F910F900FBE0F901F9018953FB7DD
:10063000F8948091550290915602A0915702B09182
:10064000580226B5A89B05C02F3F19F00196A11DA1
:10065000B11D3FBFBA2FA92F982F8827820F911D58
:10066000A11DB11DBC01CD0142E0660F771F881F9F
:10067000991F4A95D1F70895CF92DF92EF92FF929A
:10068000CF93DF936B017C010E941703EB01C11430
:10069000D104E104F10479F00E9417036C1B7D0B77
:1006A000683E7340A0F381E0C81AD108E108F10860
:1006B000C851DC4FECCFDF91CF91FF90EF90DF90EE
:1006C000CF900895789484B5826084BD84B58160AC
:1006D00084BD85B5826085BD85B5816085BDEEE64A
:1006E000F0E0808181608083E1E8F0E01082808129
:1006F00082608083808181608083E0E8F0E0808197
:1007000081608083E1EBF0E0808184608083E0EBB6
:10071000F0E0808181608083E1E9F0E080818260A7
:100720008083808181608083E0E9F0E08081816066
:100730008083E1EAF0E08081826080838081816053
:100740008083E0EAF0E0808181608083E1E2F1E093
:10075000808182608083808181608083E0E2F1E03B
:10076000808181608083EAE7F0E08081846080831B
:1007700080818260808380818160808380818068C5
:1007800080831092C1000895FC01808191810C94B6
:100790000F0BCF93DF93EC0188819981009711F0C3
:1007A0000E940F0B198218821D821C821B821A82E2
:1007B000DF91CF9108950F931F93CF93DF93EC01B7
:1007C0008B016F5F7F4F888199810E94920900970A
:1007D00031F0998388831B830A8381E001C080E024
:1007E000DF91CF911F910F910895CF93DF93EC018B
:1007F00088819981892B29F08A819B8186179707A7
:1008000060F4CE010E94DB03882341F08C819D813E
:10081000892B19F4E881F981108281E0DF91CF9171
:100820000895EF92FF920F931F93CF93DF93EC0104
:100830007B018A01BA010E94F503811104C0CE0137
:100840000E94C90307C01D830C83B7018881998169
:100850000E94CB0BCE01DF91CF911F910F91FF90A2
:10086000EF900895FC01118210821382128215828A
:10087000148216826115710551F0FB010190002070
:10088000E9F73197AF01461B570B0C9411040895FB
:10089000CF93DF93EC016115710559F0FB010190D5
:1008A0000020E9F73197AF01461B570B0E94110456
:1008B00002C00E94C903CE01DF91CF9108950F932A
:1008C0001F93CF93DF93CDB7DEB762970FB6F8943F
:1008D000DEBF0FBECDBF8C01CB01F80111821082AB
:1008E0001382128215821482168250E0BE016F5F5D
:1008F0007F4F0E94D20BBE016F5F7F4FC8010E94E5
:10090000480462960FB6F894DEBF0FBECDBFDF91EC
:10091000CF911F910F910895EF92FF920F931F9324
:10092000CF93DF936115710511F480E01CC0411570
:100930005105C1F07B01EC018C819D818A01080F7A
:10094000191FB801CE010E94F503882371F3288195
:1009500039818C819D81B701820F931F0E94CB0B3F
:100960001D830C8381E0DF91CF911F910F91FF9048
:10097000EF900895CF93DF93EC01FB014481558103
:10098000608171810E948C04811103C0CE010E949C
:10099000C903CE01DF91CF910895FC0124813581F7
:1009A0006217730748F480819181009729F0FC0158
:1009B000E60FF71F8081089580E008950E9462038A
:1009C0000E946D01CEE6D6E00E948A012097E1F3F5
:1009D0000E946E06F9CFFC0124853585F901E05CA3
:1009E000FF4F80819181329620813181821B930B50
:1009F0008F7399270895DC011C96ED91FC911D974A
:100A0000DF01A05CBF4F2D913C91119712968D9103
:100A10009C9111972817390739F08D919C91E80F17
:100A2000F91F808190E008958FEF9FEF0895FC01FA
:100A3000A485B585FD01E05CFF4F208131813296B0
:100A4000808191812817390779F080819181A80FE1
:100A5000B91F8C91208131812F5F3F4F2F73332736
:100A60003183208390E008958FEF9FEF0895FC017C
:100A700081A1882329F0A489B5898C9186FFFBCFB9
:100A800011A208950F931F93CF93DF93FC01A685C6
:100A9000B7858D01005C1F4FE8018881998101961F
:100AA0008F739927AD014E5B5F4FEA012881398131
:100AB00028173907D1F3E80128813981A20FB31F24
:100AC0006C93A685B785A05CBF4F11969C938E93BF
:100AD000A689B7892C9181E090E0078C02C0880F2D
:100AE000991F0A94E2F7822B8C9381E081A30488FA
:100AF000F589E02D80818064808381E090E0DF9142
:100B0000CF911F910F910895FB01E05CFF4F208171
:100B10003181DB01AE5BBF4F4D915C912F5F3F4F49
:100B20002F7333274217530741F040815181DB0176
:100B3000A40FB51F8C9331832083089508951F92CD
:100B40000F920FB60F9211240BB60F922F933F9373
:100B50004F935F936F937F938F939F93AF93BF93C5
:100B6000EF93FF938091C00082FD07C08091C60083
:100B70006DEB74E00E94840502C08091C600FF9175
:100B8000EF91BF91AF919F918F917F916F915F9105
:100B90004F913F912F910F900BBE0F900FBE0F9072
:100BA0001F90189508951F920F920FB60F9211245F
:100BB0000BB60F922F933F934F935F936F937F9357
:100BC0008F939F93AF93BF93EF93FF938091C80050
:100BD00082FD07C08091CE0065E374E00E94840529
:100BE00002C08091CE00FF91EF91BF91AF919F9194
:100BF0008F917F916F915F914F913F912F910F90C6
:100C00000BBE0F900FBE0F901F90189508951F9266
:100C10000F920FB60F9211240BB60F922F933F93A2
:100C20004F935F936F937F938F939F93AF93BF93F4
:100C3000EF93FF938091D00082FD07C08091D60092
:100C40006DEA73E00E94840502C08091D600FF9196
:100C5000EF91BF91AF919F918F917F916F915F9134
:100C60004F913F912F910F900BBE0F900FBE0F90A1
:100C70001F90189508951F920F920FB60F9211248E
:100C80000BB60F922F933F934F935F936F937F9386
:100C90008F939F93AF93BF93EF93FF938091300116
:100CA00082FD07C08091360165E273E00E948405F1
:100CB00002C080913601FF91EF91BF91AF919F915A
:100CC0008F917F916F915F914F913F912F910F90F5
:100CD0000BBE0F900FBE0F901F9018958FEB92E0F8
:100CE0000E94EB04892B11F00E949E058DE992E091
:100CF0000E94EB04892B11F00E94D2058BE792E051
:100D00000E94EB04892B11F00E94060689E592E00F
:100D10000E94EB04892B11F00C943A0608951F925F
:100D20000F920FB60F9211240BB60F922F933F9391
:100D30008F939F93EF93FF932091B9043091BA045E
:100D40008091BB049091BC042817390731F480913D
:100D5000C1008F7D8093C10014C0E091BB04F0916D
:100D6000BC04E758FB4F20818091BB049091BC04E8
:100D700001968F7399279093BC048093BB042093B2
:100D8000C600FF91EF919F918F913F912F910F900E
:100D90000BBE0F900FBE0F901F9018951F920F92D1
:100DA0000FB60F9211240BB60F922F933F938F9390
:100DB0009F93EF93FF9320913104309132048091FF
:100DC0003304909134042817390731F48091C90015
:100DD0008F7D8093C90014C0E0913304F0913404F6
:100DE000EF50FC4F208180913304909134040196A0
:100DF0008F73992790933404809333042093CE000B
:100E0000FF91EF919F918F913F912F910F900BBE8A
:100E10000F900FBE0F901F9018951F920F920FB654
:100E20000F9211240BB60F922F933F938F939F93A2
:100E3000EF93FF932091A9033091AA038091AB0314
:100E40009091AC032817390731F48091D1008F7D40
:100E50008093D10014C0E091AB03F091AC03E7594B
:100E6000FC4F20818091AB039091AC0301968F736E
:100E700099279093AC038093AB032093D600FF9106
:100E8000EF919F918F913F912F910F900BBE0F90FB
:100E90000FBE0F901F9018951F920F920FB60F92D2
:100EA00011240BB60F922F933F938F939F93EF9341
:100EB000FF9320912103309122038091230390918D
:100EC00024032817390731F4809131018F7D8093F5
:100ED000310114C0E0912303F0912403EF51FD4F41
:100EE0002081809123039091240301968F73992789
:100EF000909324038093230320933601FF91EF9175
:100F00009F918F913F912F910F900BBE0F900FBE2D
:100F10000F901F901895CF92DF92EF92FF92CF9390
:100F2000DF93EC016A017B014115514E61057105AA
:100F300009F1EC89FD8981E090E008A002C0880FEA
:100F4000991F0A94E2F7808360E079E08DE390E0F6
:100F5000A70196010E94980BDA01C9010197A10926
:100F6000B109B695A795979587959C01211580E1C4
:100F70003807A8F0EC89FD89108260E874E88EE1FA
:100F800090E0A70196010E94980BDA01C901019730
:100F9000A109B109B695A795979587959C01E88910
:100FA000F9893083EA89FB89208319A2EE89FF89B8
:100FB000408181E090E09C010C8C02C0220F331F25
:100FC0000A94E2F7242B2083EE89FF8940819C015B
:100FD0000D8C02C0220F331F0A94E2F7242B2083CA
:100FE000EE89FF8940819C010E8C02C0220F331FC5
:100FF0000A94E2F7242B2083EE89FF8920810F8C4D
:1010000002C0880F991F0A94E2F78095822380839B
:10101000DF91CF91FF90EF90DF90CF900895CF9226
:10102000DF92EF92FF92EFEBF2E01382128288EEF2
:10103000C82E83E0D82EE12CF12CC482D582E68222
:10104000F7826BE372E0718360838DEB94E09587A8
:10105000848789E794E09787868785EC90E0918B79
:10106000808B84EC90E0938B828B80EC90E0958B6E
:10107000848B81EC90E0978B868B82EC90E0918F53
:10108000808F86EC90E0938F828F44E0448F33E032
:10109000358F27E0268F95E0978F81E080A3EDE9DB
:1010A000F2E013821282C482D582E682F7827183D3
:1010B0006083A5E3B4E0B587A487A1EFB3E0B78769
:1010C000A687ADECB0E0B18BA08BACECB0E0B38BFD
:1010D000A28BA8ECB0E0B58BA48BA9ECB0E0B78BE9
:1010E000A68BAAECB0E0B18FA08FAEECB0E0B38FCE
:1010F000A28F448F358F268F978F80A3EBE7F2E086
:1011000013821282C482D582E682F7827183608361
:10111000ADEAB3E0B587A487A9E6B3E0B787A687B1
:10112000A5EDB0E0B18BA08BA4EDB0E0B38BA28BAA
:10113000A0EDB0E0B58BA48BA1EDB0E0B78BA68B92
:10114000A2EDB0E0B18FA08FA6EDB0E0B38FA28F7B
:10115000448F358F268F978F80A3E9E5F2E01382C5
:101160001282C482D582E682F7827183608365E24F
:1011700073E07587648761EE72E07787668765E361
:1011800071E0718B608B64E371E0738B628B60E361
:1011900071E0758B648B61E371E0778B668B62E342
:1011A00071E0718F608F66E371E0738F628F448F9F
:1011B000358F268F978F80A3FF90EF90DF90CF9091
:1011C0000895CF92DF92EF92FF920F931F93CF93E8
:1011D000DF936C01EB017B01E40EF51E00E010E0F3
:1011E000CE15DF0561F06991D601ED91FC9101907A
:1011F000F081E02DC6011995080F191FF1CFC80124
:10120000DF91CF911F910F91FF90EF90DF90CF90E2
:1012100008956115710579F0FB0101900020E9F74F
:101220003197AF01461B570BDC01ED91FC91028019
:10123000F381E02D199480E090E00895AF92BF9281
:10124000CF92DF92EF92FF920F931F93CF93DF9392
:101250007C016B01C0E0D0E000E010E0D601149604
:101260008D919C911597C817D90788F4D701ED91F6
:10127000FC91A080B180BE01C6010E94CD04682F00
:10128000C701F5011995080F191F2196E7CFC8016D
:10129000DF91CF911F910F91FF90EF90DF90CF9052
:1012A000BF90AF900895DC01ED91FC910190F08129
:1012B000E02D19940F931F93CF93DF93EC016DE012
:1012C0000E9453098C016AE0CE010E945309800FED
:1012D000911FDF91CF911F910F9108950F931F934D
:1012E000CF93DF93EC010E941E098C01CE010E9476
:1012F0005A09800F911FDF91CF911F910F9108958F
:101300000F931F93CF93DF93EC010E9409098C0187
:10131000CE010E945A09800F911FDF91CF911F913A
:101320000F9108956F927F928F929F92AF92BF928A
:10133000CF92DF92EF92FF920F931F93CF93DF93A1
:10134000009789F4CB01DF91CF911F910F91FF900E
:10135000EF90DF90CF90BF90AF909F908F907F9055
:101360006F900C94770AFC01E60FF71F9C01225046
:101370003109E217F30708F4A9C0EC01D9010D9176
:101380001C91119706171707B0F00530110508F4E6
:101390009BC0C80104978617970708F495C00250B0
:1013A0001109061B170B019311936D937C93CF01C9
:1013B0000E940F0B89C05B01A01AB10A4C01800E7C
:1013C000911EA0910305B0910405612C712CE12CB4
:1013D000F12C109709F446C08D919C911197A81596
:1013E000B905B1F56C0142E0C40ED11CCA14DB048E
:1013F00078F14C018A189B08640142E0C40ED11CAC
:101400001296BC9012971396AC91B5E0CB16D1040E
:1014100040F0B282A38391828082D9016D937C9344
:1014200009C00E5F1F4F800F911FF90191838083C8
:10143000EB2DFA2FE114F10431F0D7011396FC9350
:10144000EE93129741C0F0930405E09303053CC06E
:101450006816790608F43C017D0112960D90BC9146
:10146000A02DB7CF809101059091020588169906AD
:10147000E1F466167706C8F480910602909107029F
:10148000009741F48DB79EB740910A0250910B022C
:10149000841B950BE817F907C8F4F0930205E09355
:1014A0000105F901718360830FC0CB010E94770AA7
:1014B0007C01009759F0A801BE010E94C20BCE0129
:1014C0000E940F0BC70104C0CE0102C080E090E073
:1014D000DF91CF911F910F91FF90EF90DF90CF9010
:1014E000BF90AF909F908F907F906F9008950F93D3
:1014F0001F93CF93DF938230910510F482E090E048
:10150000E0910305F091040520E030E0A0E0B0E0B8
:10151000309719F140815181028113814817590791
:10152000C8F08417950769F4109731F012960C9360
:10153000129713961C9327C000930305109304057C
:1015400022C02115310519F04217530718F49A01EA
:10155000BD01EF01DF01F801DBCF21153105F9F005
:10156000281B390B2430310580F48A819B81611559
:10157000710521F0FB019383828304C090930405DD
:1015800080930305FE01329644C0FE01E20FF31F73
:101590008193919322503109398328833AC0209155
:1015A000010530910205232B41F42091080230916E
:1015B0000902309302052093010520910602309123
:1015C00007022115310541F42DB73EB740910A02BB
:1015D00050910B02241B350BE0910105F09102059F
:1015E000E217F307A0F42E1B3F0B2817390778F0FA
:1015F000AC014E5F5F4F2417350748F04E0F5F1F59
:1016000050930205409301058193919302C0E0E05D
:10161000F0E0CF01DF91CF911F910F910895CF930B
:10162000DF93009709F481C0FC0132971382128284
:10163000A0910305B0910405109781F420813181B8
:10164000820F931F20910105309102052817390759
:1016500051F5F0930205E093010567C0ED0120E02C
:1016600030E0CE17DF0740F44A815B819E014115CF
:101670005105F1F0EA01F5CFD383C2834081518156
:10168000840F951FC817D90759F488819981840F51
:10169000951F0296918380838A819B8193838283A5
:1016A0002115310529F4F0930405E09303053DC0AD
:1016B000E901FB83EA8349915991C40FD51FEC17C7
:1016C000FD0761F480819181840F951F0296E901E5
:1016D00099838883828193819B838A83E0E0F0E011
:1016E00012968D919C911397009719F0FD01DC01E2
:1016F000F7CF8D919C9111979D012E5F3F4F820FE7
:10170000931F20910105309102052817390769F4CC
:10171000309729F4109204051092030502C0138239
:101720001282B0930205A0930105DF91CF91089535
:10173000A1E21A2EAA1BBB1BFD010DC0AA1FBB1FD5
:10174000EE1FFF1FA217B307E407F50720F0A21B47
:10175000B30BE40BF50B661F771F881F991F1A94B4
:1017600069F760957095809590959B01AC01BD01DE
:10177000CF010895EE0FFF1F881F8BBF0790F691D2
:10178000E02D1994FB01DC0102C001900D92415043
:101790005040D8F70895FB01DC0101900D92002024
:1017A000E1F708954532510520F4423010F00C94D1
:1017B000DD0BFB011082CB010895BB274A3031F4C9
:1017C000992322F4BDE2909581959F4F0C94E90BEB
:1017D000BB27FB015527AA27880F991FAA1FA4170B
:1017E00010F0A41B83955051B9F7A05DAA3308F0FF
:1017F000A95DA193009779F7B111B1931192CB0133
:101800000C94020CDC01FC01672F71917723E1F746
:10181000329704C07C916D9370836291AE17BF07BD
:08182000C8F30895F894FFCF0E
:101828002D002C002A0000000505800046696E691D
:10183800736865642073657475702E0057726974D7
:10184800696E6720746F206469676974616C2070C1
:10185800696E202E2E2E00000000004205E108EBE4
:08186800041705FB043705001D
:00000001FF
