:100000000C94A2010C94D3010C94D3010C94D30151
:100010000C94D3010C94D3010C94D3010C94D30110
:100020000C94D3010C9460040C9438040C940A04CE
:100030000C94D3010C94D3010C94D3010C94D301F0
:100040000C94D3010C94D3010C94D3010C94D301E0
:100050000C94D3010C94D3010C94D3010C94B506E9
:100060000C94D3010C9487090C94770A0C94D30157
:100070000C94D3010C94D3010C94D3010C94D301B0
:100080000C94D3010C94D3010C94D3010C94D301A0
:100090000C94BB090C94B60A0C94D3010C94D301B4
:1000A0000C94D3010C94D3010C94D3010C94D30180
:1000B0000C94D3010C94D3010C94D3010C94D30170
:1000C0000C94D3010C94D3010C94D3010C94EF093C
:1000D0000C94F50A0C94D3010C94230A0C94340B61
:1000E0000C94D3010F0612060506090649061606EA
:1000F0001A062006240628062E063206360649066B
:100100003C06400644060C941A060C942E060C94E9
:1001100024060C9405060C94A4030C94560A0C9423
:1001200036060C94FB020C94E3080C9416060C940F
:10013000FF080C94D3080C9420060C94C9020C946C
:1001400049060C94A8020C940F060C9432060C94E9
:1001500006020C9444060C9428060C943C060C945D
:100160001F090C942A090C94C90C0C94F70B0C94DD
:10017000E3020C9422020C9409060C9412060C94CF
:10018000400600C201000100110011000C0000E156
:1001900000000A002500250021000096000019003B
:1001A000390039003600127A00001F004600460070
:1001B00044008070000022004D004D004A00004BBA
:1001C00000003600750075007200403800004A00DB
:1001D0009C009C009900802500007200EC00EC005F
:1001E000E900C0120000E900DA01DA01D701600974
:1001F0000000D701B603B603B303B0040000B30395
:100200006E076E076B07580200006E07DC0EDC0EEF
:10021000D80E2C010000DC0EC11DC11DBE1D00004A
:10022000090A02080B0C0D07060304010000000078
:1002300000000000000000000000000000000000BE
:100240000000000000000000000011100F0000007E
:10025000000000000000000000000000000000009E
:10026000000000000102102020080810204010208B
:10027000408002010201080402010102040810206A
:100280004080804020100804020180040201804068
:1002900020100804020108040201010204081020D1
:1002A000408001020408102040800505050507056F
:1002B00008080808020202020A0A080804040404E2
:1002C000010101010101010103030303030303030E
:1002D000040707070C0C0C0C0C0C0C0C020202029D
:1002E00006060606060606060B0B0B0B0B0B0B0B86
:1002F000000020002300260029002C002F003200DF
:100300000001000003010601090100002200250090
:1003100028002B002E0031003400020100000501EE
:1003200008010B0100002100240027002A002D00F5
:100330003000330001010000040107010A01060238
:10034000F70B220211241FBECFEFD1E2DEBFCDBFDB
:1003500000E00CBF12E0A0E0B2E0ECE8F0E200E068
:100360000BBF02C007900D92A638B107D9F725E060
:10037000A6E8B2E001C01D92A33AB207E1F711E08E
:10038000C1EAD1E000E006C021970109802FFE01FB
:100390000E94C80FCF39D10780E00807A9F70E9453
:1003A000C6080C9434100C94000048E552E060E05C
:1003B00070E08DE593E00E94730B6DE072E08DE5D7
:1003C00093E00E94680D40E855E260E070E08EE83E
:1003D00092E00E94010563E272E08DE593E00E94E5
:1003E000680D63E272E08EE892E00E94680D61E0C1
:1003F000809104020E944A0661E0809100020E94FE
:100400004A0661E0809102020C944A0620E041E035
:1004100060E08EE892E00E94D604E8E8F2E0809185
:100420000402909105029183808380910202909151
:10043000030293838283809100029091010295834D
:10044000848308958EE892E00C94F1051F93CF9376
:10045000DF93CDB7DEB72E970FB6F894DEBF0FBE91
:10046000CDBFE0918602F0918702EE0FFF1FE857A3
:10047000FD4F608171814AE0CE0108960E944708D5
:1004800064E372E0CE0101960E941A08BE01685F23
:100490007F4FCE0101960E94A208BC018DE593E03A
:1004A0000E94560DCE0101960E94AC07CE0108961F
:1004B0000E94AC07E0918602F0918702EE0FFF1FC9
:1004C000E857FD4F61E080810E9486068091860298
:1004D00090918702FC01EE0FFF1FE857FD4F10813E
:1004E000823091052CF0109287021092860205C08E
:1004F000019690938702809386026FE472E08DE507
:1005000093E00E94680D8EE892E00E94A80280931A
:100510000602682F8DE593E00E947A0D64EC79E085
:1005200080E090E00E94240760E0812F0E94860610
:1005300064EC79E080E090E00E9424072E960FB6EC
:10054000F894DEBF0FBECDBFDF91CF911F9108950C
:100550002091EC023091ED0228173907B9F49091FF
:10056000AA028091AB02981789F0E091AA02F0E00C
:10057000E455FD4F80812091AA0230E02F5F3F4F6C
:100580002F7333272093AA0290E008958FEF9FEFF7
:1005900008952091EC023091ED022817390781F47B
:1005A0009091AA028091AB02981751F0E091AA02B3
:1005B000F0E0E455FD4F8081082E000C990B089562
:1005C0008FEF9FEF08952091EC023091ED022817F4
:1005D000390771F48091AB022091AA0290E0805C0F
:1005E0009F4F821B910960E470E00E94920F089572
:1005F00080E090E008952091EC023091ED02281700
:10060000390739F48FB7F8941092AB021092AA020E
:100610008FBF0895DC015196ED91FC915297908126
:1006200050968C91809589238083089520E00197CE
:100630002FEF8F3F9207D9F708952091EC02309168
:10064000ED022817390789F0FC01238D2E7F238FB7
:100650002FB7F8941092AB021092AA029093ED0279
:100660008093EC022FBF81E0089580E00895EF921F
:10067000FF920F931F93CF93DF93EC018B8DEE8549
:10068000FF859D8581FF04C08081982329F446C0A1
:100690008081982309F042C08B899C890E941603AF
:1006A00088E0E82EF12C10E001E08D899E890E94FF
:1006B0001603EE85FF8590818D85892311F0102B1F
:1006C00003C0802F80951823000F81E0E81AF108FD
:1006D00061F78F89988D0E9416038B8D81FD10958F
:1006E0008091AB022091AA0290E001968F73992726
:1006F00030E08217930779F0E091AB02F0E0E45527
:10070000FD4F10838091AB0290E001968F73992783
:100710008093AB0203C08B8D81608B8FDF91CF9173
:100720001F910F91FF90EF900895611102C00C94FA
:100730000A03DC015196ED91FC915297208150966D
:100740008C91822B80830895DF92EF92FF920F931A
:100750001F93CF93DF93EC01298D3A8D211531053D
:1007600029F481E090E09B838A834BC0162FDFB68B
:10077000F8946B8D669561700E949503898D9A8DB2
:1007800005960E9416038B8D98E0E92EF12C01E06E
:1007900081FF18C0812F802321F0CE010E940A031F
:1007A00004C061E0CE010E949503898D9A8D0E945C
:1007B0001603000F81E0E81AF10861F7CE010E94EC
:1007C0000A0318C0812F802329F061E0CE010E9426
:1007D000950303C0CE010E940A03898D9A8D0E9461
:1007E0001603000F81E0E81AF10861F761E0CE011D
:1007F0000E949503DFBE898D9A8D0E94160321E029
:1008000030E0C901DF91CF911F910F91FF90EF90E0
:10081000DF9008951F920F920FB60F9211240BB61E
:100820000F922F933F934F935F936F937F938F9389
:100830009F93AF93BF93EF93FF938091EC029091BE
:10084000ED02009711F00E943703FF91EF91BF91E5
:10085000AF919F918F917F916F915F914F913F9158
:100860002F910F900BBE0F900FBE0F901F901895F9
:100870001F920F920FB60F9211240BB60F922F9367
:100880003F934F935F936F937F938F939F93AF9318
:10089000BF93EF93FF930E940A04FF91EF91BF91E2
:1008A000AF919F918F917F916F915F914F913F9108
:1008B0002F910F900BBE0F900FBE0F901F901895A9
:1008C0001F920F920FB60F9211240BB60F922F9317
:1008D0003F934F935F936F937F938F939F93AF93C8
:1008E000BF93EF93FF930E940A04FF91EF91BF9192
:1008F000AF919F918F917F916F915F914F913F91B8
:100900002F910F900BBE0F900FBE0F901F90189558
:100910001F93CF93DF93EC01162F61E0812F0E948C
:100920004A0661E0812F0E948606812F90E0FC013B
:10093000EC59FD4FE491E88BFC01E655FD4FE49145
:10094000F0E0EE0FFF1FE65FFC4F859194919A8BCC
:10095000898BDF91CF911F9108951F93CF93DF93E0
:10096000EC01162F60E0812F0E944A068B8D81FDDD
:1009700004C061E0812F0E9486061C87812F90E0D1
:10098000FC01EC59FD4FE491ED87FC01E655FD4F6C
:10099000E491F0E0EE0FFF1FE051FD4F859194913F
:1009A0009F878E87DF91CF911F9108951F93CF93DB
:1009B000DF93EC01162F1B821A8288EE93E0A0E0F1
:1009C000B0E08C839D83AE83BF8389E692E09983F8
:1009D00088831C8A1B8A1E8A1D8A188E1F8A1A8E7B
:1009E000198E8B8D8E7F20FB81F98B8F642FCE012A
:1009F0000E948804612FCE01DF91CF911F910C944A
:100A0000AD04CF92DF92EF92FF92CF93DF93EC0190
:100A10001A8E198E188E1F8A1E8A1D8A82E891E00E
:100A200020E030E0FC01C590D590E590F490C4162C
:100A3000D506E606F70619F54CE0429FC001439F34
:100A4000900D1124FC01EA57FE4F259134913C8B07
:100A50002B8BFC01E857FE4F259134913E8B2D8B5B
:100A6000FC01E657FE4F25913491388F2F8BFC0106
:100A7000E457FE4F859194919A8F898F09C02F5F1B
:100A80003F4F0C962D30310509F0CCCF1C8A1B8AC4
:100A90008F89988D892B09F45DC08C8526EF280FEE
:100AA000243048F09EEC980F943028F092EC980F88
:100AB000983008F04BC090916800243048F02EEC3C
:100AC000280F243028F08E53883010F484E001C0C1
:100AD00081E0892B809368009C8586EF890F8430A4
:100AE00058F02EEC290F243038F022EC290F283052
:100AF00040F0A0E0B0E007C0ABE6B0E0EBE6F0E02D
:100B000006C0ADE6B0E0283070F5EDE6F0E02081FB
:100B1000843010F496500BC0923379F0933379F00F
:100B2000943379F082EC890F883068F4982F81E053
:100B300001C0880F9A95EAF707C088E005C084E0F5
:100B400003C082E001C081E0822B8C93898D9A8D55
:100B50000E941603CE01DF91CF91FF90EF90DF90BE
:100B6000CF900C941D03E0E0F0E0D1CFFC01948520
:100B700086EF890F843048F02EEC290F243028F0BE
:100B800022EC290F283030F00895EBE6F0E0ABE6D8
:100B9000B0E004C0EDE6F0E0ADE6B0E03C918430BA
:100BA00018F42AEF290F0BC0923389F0933389F0A0
:100BB000943389F082EC890F883078F4282F81E013
:100BC00090E001C0880F2A95EAF7809507C087EF6B
:100BD00005C08BEF03C08DEF01C08EEF83238083B0
:100BE000089529E632E0FC01318320830C94B60598
:100BF00090E0FC013197E131F10508F04AC0882707
:100C0000EE58FF4F8F4F0C94C80F809180008F7764
:100C100003C0809180008F7D80938000089584B50B
:100C20008F7702C084B58F7D84BD08958091B00018
:100C30008F7703C08091B0008F7D8093B0000895BE
:100C4000809190008F7707C0809190008F7D03C0C6
:100C500080919000877F8093900008958091A000FC
:100C60008F7707C08091A0008F7D03C08091A00086
:100C7000877F8093A0000895809120018F7707C01F
:100C8000809120018F7D03C080912001877F809318
:100C900020010895CF93DF9390E0FC01EC59FD4FC4
:100CA0002491FC01E655FD4F8491882361F190E089
:100CB000880F991FFC01EC5DFC4FC591D491FC019C
:100CC000E65FFC4FA591B491611109C09FB7F894FC
:100CD0008881209582238883EC912E230BC062307B
:100CE00061F49FB7F8948881322F309583238883ED
:100CF000EC912E2B2C939FBF06C08FB7F894E88100
:100D00002E2B28838FBFDF91CF9108951F93CF9310
:100D1000DF93282F30E0F901E25EFD4F8491F90165
:100D2000EC59FD4FD491F901E655FD4FC491CC2308
:100D3000C1F0162F81110E94F805EC2FF0E0EE0FA4
:100D4000FF1FE65FFC4FA591B4919FB7F894111176
:100D500004C08C91D095D82302C0EC91DE2BDC939B
:100D60009FBFDF91CF911F9108951F920F920FB6F1
:100D70000F9211242F933F938F939F93AF93BF9321
:100D80008091EF029091F002A091F102B091F202F5
:100D90003091EE0223E0230F2D3720F40196A11DA0
:100DA000B11D05C026E8230F0296A11DB11D209399
:100DB000EE028093EF029093F002A093F102B093C1
:100DC000F2028091F3029091F402A091F502B091A9
:100DD000F6020196A11DB11D8093F3029093F402D7
:100DE000A093F502B093F602BF91AF919F918F91BE
:100DF0003F912F910F900FBE0F901F9018953FB706
:100E0000F8948091F3029091F402A091F502B091D0
:100E1000F60226B5A89B05C02F3F19F00196A11D2B
:100E2000B11D3FBFBA2FA92F982F8827820F911D80
:100E3000A11DB11DBC01CD0142E0660F771F881FC7
:100E4000991F4A95D1F70895CF92DF92EF92FF92C2
:100E5000CF93DF936B017C010E94FF06EB01C1146D
:100E6000D104E104F10479F00E94FF066C1B7D0BB4
:100E7000683E7340A0F381E0C81AD108E108F10888
:100E8000C851DC4FECCFDF91CF91FF90EF90DF9016
:100E9000CF900895789484B5826084BD84B58160D4
:100EA00084BD85B5826085BD85B5816085BDEEE672
:100EB000F0E0808181608083E1E8F0E01082808151
:100EC00082608083808181608083E0E8F0E08081BF
:100ED00081608083E1EBF0E0808184608083E0EBDF
:100EE000F0E0808181608083E1E9F0E080818260D0
:100EF0008083808181608083E0E9F0E0808181608F
:100F00008083E1EAF0E0808182608083808181607B
:100F10008083E0EAF0E0808181608083E1E2F1E0BB
:100F2000808182608083808181608083E0E2F1E063
:100F3000808181608083EAE7F0E080818460808343
:100F400080818260808380818160808380818068ED
:100F500080831092C1000895FC01808191810C94DE
:100F6000090FCF93DF93EC0188819981009711F0ED
:100F70000E94090F198218821D821C821B821A820C
:100F8000DF91CF9108950F931F93CF93DF93EC01DF
:100F90008B016F5F7F4F888199810E948C0D009734
:100FA00031F0998388831B830A8381E001C080E04C
:100FB000DF91CF911F910F910895CF93DF93EC01B3
:100FC00088819981892B29F08A819B8186179707CF
:100FD00060F4CE010E94C307882341F08C819D817B
:100FE000892B19F4E881F981108281E0DF91CF919A
:100FF0000895EF92FF920F931F93CF93DF93EC012D
:101000007B018A01BA010E94DD07811104C0CE0173
:101010000E94B10707C01D830C83B70188819981A5
:101020000E94ED0FCE01DF91CF911F910F91FF90A4
:10103000EF900895FC0111821082138212821582B2
:10104000148216826115710551F0FB010190002098
:10105000E9F73197AF01461B570B0C94F907089538
:10106000CF93DF93EC016115710559F0FB010190FD
:101070000020E9F73197AF01461B570B0E94F90793
:1010800002C00E94B107CE01DF91CF9108950F9366
:101090001F93CF93DF93CDB7DEB762970FB6F89467
:1010A000DEBF0FBECDBF8C01CB01F80111821082D3
:1010B0001382128215821482168250E0BE016F5F85
:1010C0007F4F0E94F40FBE016F5F7F4FC8010E94E7
:1010D000300862960FB6F894DEBF0FBECDBFDF9129
:1010E000CF911F910F910895EF92FF920F931F934D
:1010F000CF93DF936115710511F480E01CC0411599
:101100005105C1F07B01EC018C819D818A01080FA2
:10111000191FB801CE010E94DD07882371F32881D1
:1011200039818C819D81B701820F931F0E94ED0F41
:101130001D830C8381E0DF91CF911F910F91FF9070
:10114000EF900895CF93DF93EC01FB01448155812B
:10115000608171810E947408811103C0CE010E94D8
:10116000B107CE01DF91CF910895FC012481358133
:101170006217730748F480819181009729F0FC0180
:10118000E60FF71F8081089580E008950E944A07C6
:101190000E94D501C6E5DAE00E9426022097E1F31D
:1011A0000E94560AF9CFFC0124853585F901E05CDF
:1011B000FF4F80819181329620813181821B930B78
:1011C0008F7399270895DC011C96ED91FC911D9772
:1011D000DF01A05CBF4F2D913C91119712968D912C
:1011E0009C9111972817390739F08D919C91E80F40
:1011F000F91F808190E008958FEF9FEF0895FC0123
:10120000A485B585FD01E05CFF4F208131813296D8
:10121000808191812817390779F080819181A80F09
:10122000B91F8C91208131812F5F3F4F2F7333275E
:101230003183208390E008958FEF9FEF0895FC01A4
:1012400081A1882329F0A489B5898C9186FFFBCFE1
:1012500011A208950F931F93CF93DF93FC01A685EE
:10126000B7858D01005C1F4FE80188819981019647
:101270008F739927AD014E5B5F4FEA012881398159
:1012800028173907D1F3E80128813981A20FB31F4C
:101290006C93A685B785A05CBF4F11969C938E93E7
:1012A000A689B7892C9181E090E0078C02C0880F55
:1012B000991F0A94E2F7822B8C9381E081A3048822
:1012C000F589E02D80818064808381E090E0DF916A
:1012D000CF911F910F910895FB01E05CFF4F20819A
:1012E0003181DB01AE5BBF4F4D915C912F5F3F4F72
:1012F0002F7333274217530741F040815181DB019F
:10130000A40FB51F8C9331832083089508951F92F5
:101310000F920FB60F9211240BB60F922F933F939B
:101320004F935F936F937F938F939F93AF93BF93ED
:10133000EF93FF938091C00082FD07C08091C600AB
:101340006BE575E00E946C0902C08091C600FF91B8
:10135000EF91BF91AF919F918F917F916F915F912D
:101360004F913F912F910F900BBE0F900FBE0F909A
:101370001F90189508951F920F920FB60F92112487
:101380000BB60F922F933F934F935F936F937F937F
:101390008F939F93AF93BF93EF93FF938091C80078
:1013A00082FD07C08091CE0063ED74E00E946C095D
:1013B00002C08091CE00FF91EF91BF91AF919F91BC
:1013C0008F917F916F915F914F913F912F910F90EE
:1013D0000BBE0F900FBE0F901F90189508951F928F
:1013E0000F920FB60F9211240BB60F922F933F93CB
:1013F0004F935F936F937F938F939F93AF93BF931D
:10140000EF93FF938091D00082FD07C08091D600BA
:101410006BE474E00E946C0902C08091D600FF91D9
:10142000EF91BF91AF919F918F917F916F915F915C
:101430004F913F912F910F900BBE0F900FBE0F90C9
:101440001F90189508951F920F920FB60F921124B6
:101450000BB60F922F933F934F935F936F937F93AE
:101460008F939F93AF93BF93EF93FF93809130013E
:1014700082FD07C08091360163EC73E00E946C0925
:1014800002C080913601FF91EF91BF91AF919F9182
:101490008F917F916F915F914F913F912F910F901D
:1014A0000BBE0F900FBE0F901F9018958DE593E027
:1014B0000E94D308892B11F00E9486098BE393E0E8
:1014C0000E94D308892B11F00E94BA0989E193E0A8
:1014D0000E94D308892B11F00E94EE0987EF92E059
:1014E0000E94D308892B11F00C94220A08951F92B0
:1014F0000F920FB60F9211240BB60F922F933F93BA
:101500008F939F93EF93FF93209157053091580548
:101510008091590590915A052817390731F4809127
:10152000C1008F7D8093C10014C0E0915905F091F6
:101530005A05E95EFA4F20818091590590915A052C
:1015400001968F73992790935A058093590520939C
:10155000C600FF91EF919F918F913F912F910F9036
:101560000BBE0F900FBE0F901F9018951F920F92F9
:101570000FB60F9211240BB60F922F933F938F93B8
:101580009F93EF93FF932091CF043091D0048091EB
:10159000D1049091D2042817390731F48091C90001
:1015A0008F7D8093C90014C0E091D104F091D204E2
:1015B000E157FB4F20818091D1049091D204019694
:1015C0008F7399279093D2048093D1042093CE00F7
:1015D000FF91EF919F918F913F912F910F900BBEB3
:1015E0000F900FBE0F901F9018951F920F920FB67D
:1015F0000F9211240BB60F922F933F938F939F93CB
:10160000EF93FF932091470430914804809149045F
:1016100090914A042817390731F48091D1008F7DC9
:101620008093D10014C0E0914904F0914A04E95F2D
:10163000FB4F20818091490490914A0401968F7359
:10164000992790934A04809349042093D600FF91F0
:10165000EF919F918F913F912F910F900BBE0F9023
:101660000FBE0F901F9018951F920F920FB60F92FA
:1016700011240BB60F922F933F938F939F93EF9369
:10168000FF932091BF033091C0038091C1039091DB
:10169000C2032817390731F4809131018F7D80937F
:1016A000310114C0E091C103F091C203E158FC4F35
:1016B00020818091C1039091C20301968F73992775
:1016C0009093C2038093C10320933601FF91EF9161
:1016D0009F918F913F912F910F900BBE0F900FBE56
:1016E0000F901F901895CF92DF92EF92FF92CF93B9
:1016F000DF93EC016A017B014115514E61057105D3
:1017000009F1EC89FD8981E090E008A002C0880F12
:10171000991F0A94E2F7808360E079E08DE390E01E
:10172000A70196010E94A60FDA01C9010197A1093C
:10173000B109B695A795979587959C01211580E1EC
:101740003807A8F0EC89FD89108260E874E88EE122
:1017500090E0A70196010E94A60FDA01C901019746
:10176000A109B109B695A795979587959C01E88938
:10177000F9893083EA89FB89208319A2EE89FF89E0
:10178000408181E090E09C010C8C02C0220F331F4D
:101790000A94E2F7242B2083EE89FF8940819C0183
:1017A0000D8C02C0220F331F0A94E2F7242B2083F2
:1017B000EE89FF8940819C010E8C02C0220F331FED
:1017C0000A94E2F7242B2083EE89FF8920810F8C75
:1017D00002C0880F991F0A94E2F7809582238083C4
:1017E000DF91CF91FF90EF90DF90CF900895CF924F
:1017F000DF92EF92FF92EDE5F3E01382128288EE22
:10180000C82E83E0D82EE12CF12CC482D582E6824A
:10181000F78269E772E0718360838BE595E09587D5
:10182000848787E195E09787868785EC90E0918BA8
:10183000808B84EC90E0938B828B80EC90E0958B96
:10184000848B81EC90E0978B868B82EC90E0918F7B
:10185000808F86EC90E0938F828F44E0448F33E05A
:10186000358F27E0268F95E0978F81E080A3EBE30B
:10187000F3E013821282C482D582E682F7827183FA
:101880006083A3EDB4E0B587A487AFE8B4E0B78781
:10189000A687ADECB0E0B18BA08BACECB0E0B38B25
:1018A000A28BA8ECB0E0B58BA48BA9ECB0E0B78B11
:1018B000A68BAAECB0E0B18FA08FAEECB0E0B38FF6
:1018C000A28F448F358F268F978F80A3E9E1F3E0B5
:1018D00013821282C482D582E682F782718360838A
:1018E000ABE4B4E0B587A487A7E0B4E0B787A687E8
:1018F000A5EDB0E0B18BA08BA4EDB0E0B38BA28BD3
:10190000A0EDB0E0B58BA48BA1EDB0E0B78BA68BBA
:10191000A2EDB0E0B18FA08FA6EDB0E0B38FA28FA3
:10192000448F358F268F978F80A3E7EFF2E01382E5
:101930001282C482D582E682F7827183608363EC6F
:1019400073E0758764876FE773E07787668765E381
:1019500071E0718B608B64E371E0738B628B60E389
:1019600071E0758B648B61E371E0778B668B62E36A
:1019700071E0718F608F66E371E0738F628F448FC7
:10198000358F268F978F80A3FF90EF90DF90CF90B9
:101990000895CF92DF92EF92FF920F931F93CF9310
:1019A000DF936C01EB017B01E40EF51E00E010E01B
:1019B000CE15DF0561F06991D601ED91FC910190A2
:1019C000F081E02DC6011995080F191FF1CFC8014C
:1019D000DF91CF911F910F91FF90EF90DF90CF900B
:1019E00008956115710579F0FB0101900020E9F778
:1019F0003197AF01461B570BDC01ED91FC91028042
:101A0000F381E02D199480E090E00895AF92BF92A9
:101A1000CF92DF92EF92FF920F931F93CF93DF93BA
:101A20007C016B01C0E0D0E000E010E0D60114962C
:101A30008D919C911597C817D90788F4D701ED911E
:101A4000FC91A080B180BE01C6010E94B508682F3C
:101A5000C701F5011995080F191F2196E7CFC80195
:101A6000DF91CF911F910F91FF90EF90DF90CF907A
:101A7000BF90AF900895DC01ED91FC910190F08151
:101A8000E02D19940F931F93CF93DF93EC016DE03A
:101A90000E943B0D8C016AE0CE010E943B0D800F3D
:101AA000911FDF91CF911F910F9108950F931F9375
:101AB000CF93DF93EC010E94060D8C01CE010E94B2
:101AC000420D800F911FDF91CF911F910F910895CB
:101AD0000F931F93CF93DF93EC010E94F10C8C01C5
:101AE000CE010E94420D800F911FDF91CF911F9177
:101AF0000F9108950F931F93CF93DF93EC010E94F2
:101B00003B0D8C01CE010E94420D800F911FDF9191
:101B1000CF911F910F9108956F927F928F929F9214
:101B2000AF92BF92CF92DF92EF92FF920F931F93EB
:101B3000CF93DF93009789F4CB01DF91CF911F9171
:101B40000F91FF90EF90DF90CF90BF90AF909F905C
:101B50008F907F906F900C94710EFC01E60FF71F31
:101B60009C0122503109E217F30708F4A9C0EC01E7
:101B7000D9010D911C91119706171707B0F0053088
:101B8000110508F49BC0C80104978617970708F44D
:101B900095C002501109061B170B019311936D9309
:101BA0007C93CF010E94090F89C05B01A01AB10A82
:101BB0004C01800E911EA091A105B091A205612C4F
:101BC000712CE12CF12C109709F446C08D919C9159
:101BD0001197A815B905B1F56C0142E0C40ED11CEE
:101BE000CA14DB0478F14C018A189B08640142E0B6
:101BF000C40ED11C1296BC9012971396AC91B5E00E
:101C0000CB16D10440F0B282A38391828082D901A5
:101C10006D937C9309C00E5F1F4F800F911FF901D8
:101C200091838083EB2DFA2FE114F10431F0D70179
:101C30001396FC93EE93129741C0F093A205E093A4
:101C4000A1053CC06816790608F43C017D01129696
:101C50000D90BC91A02DB7CF80919F059091A005CC
:101C600088169906E1F466167706C8F48091070293
:101C700090910802009741F48DB79EB740910B02F6
:101C800050910C02841B950BE817F907C8F4F093E8
:101C9000A005E0939F05F901718360830FC0CB011C
:101CA0000E94710E7C01009759F0A801BE010E94AC
:101CB000E40FCE010E94090FC70104C0CE0102C08B
:101CC00080E090E0DF91CF911F910F91FF90EF9016
:101CD000DF90CF90BF90AF909F908F907F906F904C
:101CE00008950F931F93CF93DF938230910510F4E3
:101CF00082E090E0E091A105F091A20520E030E0C3
:101D0000A0E0B0E0309719F1408151810281138148
:101D100048175907C8F08417950769F4109731F0F0
:101D200012960C93129713961C9327C00093A1054B
:101D30001093A20522C02115310519F0421753074F
:101D400018F49A01BD01EF01DF01F801DBCF211585
:101D50003105F9F0281B390B2430310580F48A81D4
:101D60009B816115710521F0FB019383828304C07F
:101D70009093A2058093A105FE01329644C0FE0116
:101D8000E20FF31F81939193225031093983288305
:101D90003AC020919F053091A005232B41F420915A
:101DA000090230910A023093A00520939F052091EB
:101DB0000702309108022115310541F42DB73EB7D5
:101DC00040910B0250910C02241B350BE0919F05B2
:101DD000F091A005E217F307A0F42E1B3F0B281784
:101DE000390778F0AC014E5F5F4F2417350748F094
:101DF0004E0F5F1F5093A00540939F0581939193D1
:101E000002C0E0E0F0E0CF01DF91CF911F910F9190
:101E10000895CF93DF93009709F481C0FC013297B6
:101E200013821282A091A105B091A205109781F4AE
:101E300020813181820F931F20919F053091A00551
:101E40002817390751F5F093A005E0939F0567C067
:101E5000ED0120E030E0CE17DF0740F44A815B81DE
:101E60009E0141155105F1F0EA01F5CFD383C283FC
:101E700040815181840F951FC817D90759F4888173
:101E80009981840F951F0296918380838A819B811B
:101E9000938382832115310529F4F093A205E09301
:101EA000A1053DC0E901FB83EA8349915991C40F23
:101EB000D51FEC17FD0761F480819181840F951F78
:101EC0000296E90199838883828193819B838A8327
:101ED000E0E0F0E012968D919C911397009719F035
:101EE000FD01DC01F7CF8D919C9111979D012E5F33
:101EF0003F4F820F931F20919F053091A005281717
:101F0000390769F4309729F41092A2051092A105BF
:101F100002C013821282B093A005A0939F05DF91A7
:101F2000CF91089597FB072E16F4009407D077FD04
:101F300009D00E94D00F07FC05D03EF49095819502
:101F40009F4F0895709561957F4F0895A1E21A2ED5
:101F5000AA1BBB1BFD010DC0AA1FBB1FEE1FFF1F4D
:101F6000A217B307E407F50720F0A21BB30BE40B9D
:101F7000F50B661F771F881F991F1A9469F76095E4
:101F80007095809590959B01AC01BD01CF0108959E
:101F9000EE0FFF1F881F8BBF0790F691E02D19945D
:101FA000AA1BBB1B51E107C0AA1FBB1FA617B7077F
:101FB00010F0A61BB70B881F991F5A95A9F780959B
:101FC0009095BC01CD010895FB01DC0102C0019098
:101FD0000D9241505040D8F70895FB01DC0101906B
:101FE0000D920020E1F708954532510520F442306A
:101FF00010F00C94FF0FFB011082CB010895BB275A
:102000004A3031F4992322F4BDE2909581959F4F97
:102010000C940B10BB27FB015527AA27880F991F8B
:10202000AA1FA41710F0A41B83955051B9F7A05D07
:10203000AA3308F0A95DA193009779F7B111B19384
:102040001192CB010C942410DC01FC01672F7191DB
:102050007723E1F7329704C07C916D93708362918E
:10206000AE17BF07C8F3089511E0C1EAD1E000E060
:1020700006C0802FFE010E94C80F2196011DC23AA2
:0C208000D10780E00807A9F7F894FFCF13
:10208C002D002C002A00410000A30580005365722E
:10209C0069616C206D6F6E69746F7220726561641A
:1020AC00792E00426C7565746F6F7468207265616F
:1020BC0064792E0057726974696E6720746F20649E
:1020CC0069676974616C2070696E202E2E2E005227
:1020DC00656164696E6720626C7565746F6F746896
:1020EC00202E2E2E0000000000A403C90CE302A831
:1020FC0002C902FB02000000002A09C90CD308FF28
:06210C0008E3081F0900B2
:00000001FF
