:100000000C9483000C94B4000C94B4000C94B400D1
:100010000C94B4000C94B4000C94B4000C94B40090
:100020000C94B4000C94B4000C94B4000C94B40080
:100030000C94B4000C94B4000C94B4000C94B40070
:100040000C94B4000C94B4000C94B4000C94B40060
:100050000C94B4000C94B4000C94B4000C94DB0029
:100060000C94B4000C9493020C9483030C94B4008D
:100070000C94B4000C94B4000C94B4000C94B40030
:100080000C94B4000C94B4000C94B4000C94B40020
:100090000C94C7020C94C2030C94B4000C94B400EA
:1000A0000C94B4000C94B4000C94B4000C94B40000
:1000B0000C94B4000C94B4000C94B4000C94B400F0
:1000C0000C94B4000C94B4000C94B4000C94FB0297
:1000D0000C9401040C94B4000C942F030C94400471
:1000E0000C94B4000C9462030C94EF010C940B027A
:1000F0000C94DF010C942B020C94D5050C94030591
:100100000C943602030511241FBECFEFD1E2DEBFEF
:10011000CDBF00E00CBF12E0A0E0B2E0E2E5FCE001
:1001200000E00BBF02C007900D92A031B107D9F7D4
:1001300024E0A0E1B2E001C01D92A13CB207E1F7CA
:1001400010E0C3E8D0E000E006C021970109802F4D
:10015000FE010E941F06C238D10780E00807A9F7F8
:100160000E94D2010C9427060C94000040E855E24E
:1001700060E070E08FE792E00E947F0440E855E283
:1001800060E070E08DE592E00C947F048DE592E0F4
:100190000E94DF01892B49F08DE592E00E940B025D
:1001A000682F8FE792E00E94360264EF71E080E0F2
:1001B00090E00C944A011F920F920FB60F921124F7
:1001C0002F933F938F939F93AF93BF93809111028F
:1001D00090911202A0911302B0911402309110027A
:1001E00023E0230F2D3720F40196A11DB11D05C07A
:1001F00026E8230F0296A11DB11D209310028093C3
:10020000110290931202A0931302B09314028091F2
:10021000150290911602A0911702B0911802019652
:10022000A11DB11D8093150290931602A093170291
:10023000B0931802BF91AF919F918F913F912F91F1
:100240000F900FBE0F901F9018953FB7F8948091B4
:10025000150290911602A0911702B091180226B5CE
:10026000A89B05C02F3F19F00196A11DB11D3FBFEE
:10027000BA2FA92F982F8827820F911DA11DB11D7C
:10028000BC01CD0142E0660F771F881F991F4A9578
:10029000D1F70895CF92DF92EF92FF92CF93DF9341
:1002A0006B017C010E942501EB01C114D104E10422
:1002B000F10479F00E9425016C1B7D0B683E7340B0
:1002C000A0F381E0C81AD108E108F108C851DC4F59
:1002D000ECCFDF91CF91FF90EF90DF90CF9008951A
:1002E000789484B5826084BD84B5816084BD85B511
:1002F000826085BD85B5816085BDEEE6F0E08081D8
:1003000081608083E1E8F0E01082808182608083F8
:10031000808181608083E0E8F0E08081816080837B
:10032000E1EBF0E0808184608083E0EBF0E08081AD
:1003300081608083E1E9F0E0808182608083808158
:1003400081608083E0E9F0E0808181608083E1EA80
:10035000F0E0808182608083808181608083E0EA38
:10036000F0E0808181608083E1E2F1E08081826061
:100370008083808181608083E0E2F1E08081816020
:100380008083EAE7F0E080818460808380818260FE
:1003900080838081816080838081806880831092E7
:1003A000C10008950E9470010E94B600C2E6D3E029
:1003B0000E94C6002097E1F30E946203F9CFFC017E
:1003C00024853585F901E05CFF4F8081918132966B
:1003D00020813181821B930B8F7399270895DC0153
:1003E0001C96ED91FC911D97DF01A05CBF4F2D91F4
:1003F0003C91119712968D919C911197281739076E
:1004000039F08D919C91E80FF91F808190E008955B
:100410008FEF9FEF0895FC01A485B585FD01E05C99
:10042000FF4F2081318132968081918128173907D1
:1004300079F080819181A80FB91F8C912081318141
:100440002F5F3F4F2F7333273183208390E0089530
:100450008FEF9FEF0895FC0181A1882329F0A489E3
:10046000B5898C9186FFFBCF11A208950F931F933E
:10047000CF93DF93FC01A685B7858D01005C1F4FEC
:10048000E8018881998101968F739927AD014E5BB0
:100490005F4FEA012881398128173907D1F3E80134
:1004A00028813981A20FB31F6C93A685B785A05C04
:1004B000BF4F11969C938E93A689B7892C9181E0AA
:1004C00090E0078C02C0880F991F0A94E2F7822BF4
:1004D0008C9381E081A30488F589E02D808180647C
:1004E000808381E090E0DF91CF911F910F9108957B
:1004F000FB01E05CFF4F20813181DB01AE5BBF4F30
:100500004D915C912F5F3F4F2F7333274217530755
:1005100041F040815181DB01A40FB51F8C933183E1
:100520002083089508951F920F920FB60F92112401
:100530000BB60F922F933F934F935F936F937F93DD
:100540008F939F93AF93BF93EF93FF938091C000DE
:1005500082FD07C08091C6006DE774E00E947802BA
:1005600002C08091C600FF91EF91BF91AF919F9122
:100570008F917F916F915F914F913F912F910F904C
:100580000BBE0F900FBE0F901F90189508951F92ED
:100590000F920FB60F9211240BB60F922F933F9329
:1005A0004F935F936F937F938F939F93AF93BF937B
:1005B000EF93FF938091C80082FD07C08091CE0029
:1005C00065EF73E00E94780202C08091CE00FF9137
:1005D000EF91BF91AF919F918F917F916F915F91BB
:1005E0004F913F912F910F900BBE0F900FBE0F9028
:1005F0001F90189508951F920F920FB60F92112415
:100600000BB60F922F933F934F935F936F937F930C
:100610008F939F93AF93BF93EF93FF938091D000FD
:1006200082FD07C08091D6006DE673E00E947802DB
:1006300002C08091D600FF91EF91BF91AF919F9141
:100640008F917F916F915F914F913F912F910F907B
:100650000BBE0F900FBE0F901F90189508951F921C
:100660000F920FB60F9211240BB60F922F933F9358
:100670004F935F936F937F938F939F93AF93BF93AA
:10068000EF93FF938091300182FD07C08091360186
:1006900065EE72E00E94780202C080913601FF91FF
:1006A000EF91BF91AF919F918F917F916F915F91EA
:1006B0004F913F912F910F900BBE0F900FBE0F9057
:1006C0001F9018958FE792E00E94DF01892B11F0AF
:1006D0000E9492028DE592E00E94DF01892B11F0C9
:1006E0000E94C6028BE392E00E94DF01892B11F089
:1006F0000E94FA0289E192E00E94DF01892B11F049
:100700000C942E0308951F920F920FB60F9211248E
:100710000BB60F922F933F938F939F93EF93FF937B
:100720002091790430917A0480917B0490917C042B
:100730002817390731F48091C1008F7D8093C10063
:1007400014C0E0917B04F0917C04E75CFB4F2081B6
:1007500080917B0490917C0401968F7399279093EC
:100760007C0480937B042093C600FF91EF919F91BE
:100770008F913F912F910F900BBE0F900FBE0F9056
:100780001F9018951F920F920FB60F9211240BB65F
:100790000F922F933F938F939F93EF93FF9320910B
:1007A000F1033091F2038091F3039091F403281741
:1007B000390731F48091C9008F7D8093C90014C03E
:1007C000E091F303F091F403EF54FC4F208180910A
:1007D000F3039091F40301968F7399279093F40398
:1007E0008093F3032093CE00FF91EF919F918F911F
:1007F0003F912F910F900BBE0F900FBE0F901F9047
:1008000018951F920F920FB60F9211240BB60F92EC
:100810002F933F938F939F93EF93FF9320916903BF
:1008200030916A0380916B0390916C03281739070C
:1008300031F48091D1008F7D8093D10014C0E0917C
:100840006B03F0916C03E75DFC4F208180916B039B
:1008500090916C0301968F73992790936C0380930A
:100860006B032093D600FF91EF919F918F913F9161
:100870002F910F900BBE0F900FBE0F901F901895E9
:100880001F920F920FB60F9211240BB60F922F9357
:100890003F938F939F93EF93FF932091E1023091C9
:1008A000E2028091E3029091E4022817390731F4C3
:1008B000809131018F7D8093310114C0E091E3027A
:1008C000F091E402EF55FD4F20818091E302909179
:1008D000E40201968F7399279093E4028093E302D8
:1008E00020933601FF91EF919F918F913F912F912E
:1008F0000F900BBE0F900FBE0F901F901895CF92C8
:10090000DF92EF92FF92CF93DF93EC016A017B01BC
:100910004115514E6105710509F1EC89FD8981E0B0
:1009200090E008A002C0880F991F0A94E2F7808324
:1009300060E079E08DE390E0A70196010E94FD055B
:10094000DA01C9010197A109B109B695A795979553
:1009500087959C01211580E13807A8F0EC89FD8975
:10096000108260E874E88EE190E0A70196010E9491
:10097000FD05DA01C9010197A109B109B695A7954D
:10098000979587959C01E889F9893083EA89FB89E5
:10099000208319A2EE89FF89408181E090E09C01CB
:1009A0000C8C02C0220F331F0A94E2F7242B208301
:1009B000EE89FF8940819C010D8C02C0220F331FFC
:1009C0000A94E2F7242B2083EE89FF8940819C0161
:1009D0000E8C02C0220F331F0A94E2F7242B2083CF
:1009E000EE89FF8920810F8C02C0880F991F0A941D
:1009F000E2F7809582238083DF91CF91FF90EF9083
:100A0000DF90CF900895CF92DF92EF92FF92EFE7C1
:100A1000F2E01382128288EEC82E83E0D82EE12CF9
:100A2000F12CC482D582E682F78264E072E07183A1
:100A300060838DE794E09587848789E394E09787C6
:100A4000868785EC90E0918B808B84EC90E0938B93
:100A5000828B80EC90E0958B848B81EC90E0978B7F
:100A6000868B82EC90E0918F808F86EC90E0938F64
:100A7000828F44E0448F33E0358F27E0268F95E066
:100A8000978F81E080A3EDE5F2E013821282C482A9
:100A9000D582E682F78271836083A5EFB3E0B587E4
:100AA000A487A1EBB3E0B787A687ADECB0E0B18B2C
:100AB000A08BACECB0E0B38BA28BA8ECB0E0B58B14
:100AC000A48BA9ECB0E0B78BA68BAAECB0E0B18FF9
:100AD000A08FAEECB0E0B38FA28F448F358F268FFE
:100AE000978F80A3EBE3F2E013821282C482D58257
:100AF000E682F78271836083ADE6B3E0B587A487B1
:100B0000A9E2B3E0B787A687A5EDB0E0B18BA08BD3
:100B1000A4EDB0E0B38BA28BA0EDB0E0B58BA48BBD
:100B2000A1EDB0E0B78BA68BA2EDB0E0B18FA08FA6
:100B3000A6EDB0E0B38FA28F448F358F268F978FAD
:100B400080A3E9E1F2E013821282C482D582E682B8
:100B5000F7827183608365EE72E07587648761EA6E
:100B600072E07787668765E371E0718B608B64E381
:100B700071E0738B628B60E371E0758B648B61E372
:100B800071E0778B668B62E371E0718F608F66E353
:100B900071E0738F628F448F358F268F978F80A37C
:100BA000FF90EF90DF90CF900895CF92DF92EF9279
:100BB000FF920F931F93CF93DF936C01EB017B01A7
:100BC000E40EF51E00E010E0CE15DF0561F069913E
:100BD000D601ED91FC910190F081E02DC6011995AF
:100BE000080F191FF1CFC801DF91CF911F910F910D
:100BF000FF90EF90DF90CF900895A1E21A2EAA1BEC
:100C0000BB1BFD010DC0AA1FBB1FEE1FFF1FA217BC
:100C1000B307E407F50720F0A21BB30BE40BF50BB9
:100C2000661F771F881F991F1A9469F76095709542
:100C3000809590959B01AC01BD01CF010895EE0F09
:100C4000FF1F881F8BBF0790F691E02D1994F89431
:020C5000FFCFD4
:100C5200000000003602D505DF010B02EF012B0276
:00000001FF
